{"abi":[{"type":"constructor","inputs":[{"name":"name_","type":"string","internalType":"string"},{"name":"symbol_","type":"string","internalType":"string"},{"name":"cost_","type":"uint256","internalType":"uint256"},{"name":"roundLength_","type":"uint256","internalType":"uint256"},{"name":"tokenURI_","type":"string","internalType":"string"},{"name":"initialOwner","type":"address","internalType":"address"},{"name":"pieces_","type":"tuple[]","internalType":"struct ValuablePiece[]","components":[{"name":"nft","type":"address","internalType":"address"},{"name":"erc1155TokenId","type":"uint256","internalType":"uint256"},{"name":"value","type":"uint256","internalType":"uint256"},{"name":"mintUrl","type":"string","internalType":"string"},{"name":"forceERC1155","type":"bool","internalType":"bool"}]}],"stateMutability":"nonpayable"},{"type":"function","name":"CLOCK_MODE","inputs":[],"outputs":[{"name":"","type":"string","internalType":"string"}],"stateMutability":"view"},{"type":"function","name":"activeUntil","inputs":[{"name":"player","type":"address","internalType":"address"}],"outputs":[{"name":"","type":"uint256","internalType":"uint256"}],"stateMutability":"view"},{"type":"function","name":"addPiece","inputs":[{"name":"piece","type":"tuple","internalType":"struct ValuablePiece","components":[{"name":"nft","type":"address","internalType":"address"},{"name":"erc1155TokenId","type":"uint256","internalType":"uint256"},{"name":"value","type":"uint256","internalType":"uint256"},{"name":"mintUrl","type":"string","internalType":"string"},{"name":"forceERC1155","type":"bool","internalType":"bool"}]}],"outputs":[],"stateMutability":"nonpayable"},{"type":"function","name":"approve","inputs":[{"name":"to","type":"address","internalType":"address"},{"name":"tokenId","type":"uint256","internalType":"uint256"}],"outputs":[],"stateMutability":"nonpayable"},{"type":"function","name":"balanceOf","inputs":[{"name":"owner","type":"address","internalType":"address"}],"outputs":[{"name":"","type":"uint256","internalType":"uint256"}],"stateMutability":"view"},{"type":"function","name":"clock","inputs":[],"outputs":[{"name":"","type":"uint48","internalType":"uint48"}],"stateMutability":"view"},{"type":"function","name":"cost","inputs":[],"outputs":[{"name":"","type":"uint256","internalType":"uint256"}],"stateMutability":"view"},{"type":"function","name":"delegate","inputs":[{"name":"delegatee","type":"address","internalType":"address"}],"outputs":[],"stateMutability":"nonpayable"},{"type":"function","name":"delegateBySig","inputs":[{"name":"delegatee","type":"address","internalType":"address"},{"name":"nonce","type":"uint256","internalType":"uint256"},{"name":"expiry","type":"uint256","internalType":"uint256"},{"name":"v","type":"uint8","internalType":"uint8"},{"name":"r","type":"bytes32","internalType":"bytes32"},{"name":"s","type":"bytes32","internalType":"bytes32"}],"outputs":[],"stateMutability":"nonpayable"},{"type":"function","name":"delegates","inputs":[{"name":"account","type":"address","internalType":"address"}],"outputs":[{"name":"","type":"address","internalType":"address"}],"stateMutability":"view"},{"type":"function","name":"eip712Domain","inputs":[],"outputs":[{"name":"fields","type":"bytes1","internalType":"bytes1"},{"name":"name","type":"string","internalType":"string"},{"name":"version","type":"string","internalType":"string"},{"name":"chainId","type":"uint256","internalType":"uint256"},{"name":"verifyingContract","type":"address","internalType":"address"},{"name":"salt","type":"bytes32","internalType":"bytes32"},{"name":"extensions","type":"uint256[]","internalType":"uint256[]"}],"stateMutability":"view"},{"type":"function","name":"getApproved","inputs":[{"name":"tokenId","type":"uint256","internalType":"uint256"}],"outputs":[{"name":"","type":"address","internalType":"address"}],"stateMutability":"view"},{"type":"function","name":"getPastTotalSupply","inputs":[{"name":"timepoint","type":"uint256","internalType":"uint256"}],"outputs":[{"name":"","type":"uint256","internalType":"uint256"}],"stateMutability":"view"},{"type":"function","name":"getPastVotes","inputs":[{"name":"account","type":"address","internalType":"address"},{"name":"timepoint","type":"uint256","internalType":"uint256"}],"outputs":[{"name":"","type":"uint256","internalType":"uint256"}],"stateMutability":"view"},{"type":"function","name":"getTotalPieceValue","inputs":[{"name":"account","type":"address","internalType":"address"}],"outputs":[{"name":"","type":"uint256","internalType":"uint256"}],"stateMutability":"view"},{"type":"function","name":"getVotes","inputs":[{"name":"account","type":"address","internalType":"address"}],"outputs":[{"name":"","type":"uint256","internalType":"uint256"}],"stateMutability":"view"},{"type":"function","name":"isApprovedForAll","inputs":[{"name":"owner","type":"address","internalType":"address"},{"name":"operator","type":"address","internalType":"address"}],"outputs":[{"name":"","type":"bool","internalType":"bool"}],"stateMutability":"view"},{"type":"function","name":"minimumRegistrationValue","inputs":[{"name":"account","type":"address","internalType":"address"}],"outputs":[{"name":"","type":"uint256","internalType":"uint256"}],"stateMutability":"view"},{"type":"function","name":"name","inputs":[],"outputs":[{"name":"","type":"string","internalType":"string"}],"stateMutability":"view"},{"type":"function","name":"nonces","inputs":[{"name":"owner","type":"address","internalType":"address"}],"outputs":[{"name":"","type":"uint256","internalType":"uint256"}],"stateMutability":"view"},{"type":"function","name":"owner","inputs":[],"outputs":[{"name":"","type":"address","internalType":"address"}],"stateMutability":"view"},{"type":"function","name":"ownerOf","inputs":[{"name":"tokenId","type":"uint256","internalType":"uint256"}],"outputs":[{"name":"","type":"address","internalType":"address"}],"stateMutability":"view"},{"type":"function","name":"pieceIds","inputs":[{"name":"","type":"uint256","internalType":"uint256"}],"outputs":[{"name":"","type":"uint256","internalType":"uint256"}],"stateMutability":"view"},{"type":"function","name":"pieces","inputs":[{"name":"pieceId","type":"uint256","internalType":"uint256"}],"outputs":[{"name":"nft","type":"address","internalType":"address"},{"name":"erc1155TokenId","type":"uint256","internalType":"uint256"},{"name":"value","type":"uint256","internalType":"uint256"},{"name":"mintUrl","type":"string","internalType":"string"},{"name":"forceERC1155","type":"bool","internalType":"bool"}],"stateMutability":"view"},{"type":"function","name":"playerRecords","inputs":[{"name":"player","type":"address","internalType":"address"}],"outputs":[{"name":"firstTime","type":"uint256","internalType":"uint256"},{"name":"activationTime","type":"uint256","internalType":"uint256"},{"name":"tokenId","type":"uint256","internalType":"uint256"},{"name":"usedValue","type":"uint256","internalType":"uint256"},{"name":"expirationTime","type":"uint256","internalType":"uint256"},{"name":"isActive","type":"bool","internalType":"bool"}],"stateMutability":"view"},{"type":"function","name":"removePiece","inputs":[{"name":"pieceId","type":"uint256","internalType":"uint256"}],"outputs":[],"stateMutability":"nonpayable"},{"type":"function","name":"renounceOwnership","inputs":[],"outputs":[],"stateMutability":"nonpayable"},{"type":"function","name":"roundLength","inputs":[],"outputs":[{"name":"","type":"uint256","internalType":"uint256"}],"stateMutability":"view"},{"type":"function","name":"safeTransferFrom","inputs":[{"name":"from","type":"address","internalType":"address"},{"name":"to","type":"address","internalType":"address"},{"name":"tokenId","type":"uint256","internalType":"uint256"}],"outputs":[],"stateMutability":"nonpayable"},{"type":"function","name":"safeTransferFrom","inputs":[{"name":"from","type":"address","internalType":"address"},{"name":"to","type":"address","internalType":"address"},{"name":"tokenId","type":"uint256","internalType":"uint256"},{"name":"data","type":"bytes","internalType":"bytes"}],"outputs":[],"stateMutability":"nonpayable"},{"type":"function","name":"setApprovalForAll","inputs":[{"name":"operator","type":"address","internalType":"address"},{"name":"approved","type":"bool","internalType":"bool"}],"outputs":[],"stateMutability":"nonpayable"},{"type":"function","name":"setCost","inputs":[{"name":"cost_","type":"uint256","internalType":"uint256"}],"outputs":[],"stateMutability":"nonpayable"},{"type":"function","name":"setName","inputs":[{"name":"name_","type":"string","internalType":"string"}],"outputs":[],"stateMutability":"nonpayable"},{"type":"function","name":"setRoundLength","inputs":[{"name":"roundLength_","type":"uint256","internalType":"uint256"}],"outputs":[],"stateMutability":"nonpayable"},{"type":"function","name":"setSymbol","inputs":[{"name":"symbol_","type":"string","internalType":"string"}],"outputs":[],"stateMutability":"nonpayable"},{"type":"function","name":"setTokenURI","inputs":[{"name":"tokenURI_","type":"string","internalType":"string"}],"outputs":[],"stateMutability":"nonpayable"},{"type":"function","name":"supportsInterface","inputs":[{"name":"interfaceId","type":"bytes4","internalType":"bytes4"}],"outputs":[{"name":"","type":"bool","internalType":"bool"}],"stateMutability":"view"},{"type":"function","name":"symbol","inputs":[],"outputs":[{"name":"","type":"string","internalType":"string"}],"stateMutability":"view"},{"type":"function","name":"tokenByIndex","inputs":[{"name":"index","type":"uint256","internalType":"uint256"}],"outputs":[{"name":"","type":"uint256","internalType":"uint256"}],"stateMutability":"view"},{"type":"function","name":"tokenOfOwnerByIndex","inputs":[{"name":"owner","type":"address","internalType":"address"},{"name":"index","type":"uint256","internalType":"uint256"}],"outputs":[{"name":"","type":"uint256","internalType":"uint256"}],"stateMutability":"view"},{"type":"function","name":"tokenURI","inputs":[{"name":"tokenId","type":"uint256","internalType":"uint256"}],"outputs":[{"name":"","type":"string","internalType":"string"}],"stateMutability":"view"},{"type":"function","name":"totalSupply","inputs":[],"outputs":[{"name":"","type":"uint256","internalType":"uint256"}],"stateMutability":"view"},{"type":"function","name":"transferFrom","inputs":[{"name":"from","type":"address","internalType":"address"},{"name":"to","type":"address","internalType":"address"},{"name":"tokenId","type":"uint256","internalType":"uint256"}],"outputs":[],"stateMutability":"nonpayable"},{"type":"function","name":"transferOwnership","inputs":[{"name":"newOwner","type":"address","internalType":"address"}],"outputs":[],"stateMutability":"nonpayable"},{"type":"function","name":"updatePlayer","inputs":[{"name":"account","type":"address","internalType":"address"}],"outputs":[],"stateMutability":"nonpayable"},{"type":"function","name":"updatePlayers","inputs":[{"name":"accounts","type":"address[]","internalType":"address[]"}],"outputs":[],"stateMutability":"nonpayable"},{"type":"event","name":"Approval","inputs":[{"name":"owner","type":"address","indexed":true,"internalType":"address"},{"name":"approved","type":"address","indexed":true,"internalType":"address"},{"name":"tokenId","type":"uint256","indexed":true,"internalType":"uint256"}],"anonymous":false},{"type":"event","name":"ApprovalForAll","inputs":[{"name":"owner","type":"address","indexed":true,"internalType":"address"},{"name":"operator","type":"address","indexed":true,"internalType":"address"},{"name":"approved","type":"bool","indexed":false,"internalType":"bool"}],"anonymous":false},{"type":"event","name":"BatchMetadataUpdate","inputs":[{"name":"_fromTokenId","type":"uint256","indexed":false,"internalType":"uint256"},{"name":"_toTokenId","type":"uint256","indexed":false,"internalType":"uint256"}],"anonymous":false},{"type":"event","name":"DelegateChanged","inputs":[{"name":"delegator","type":"address","indexed":true,"internalType":"address"},{"name":"fromDelegate","type":"address","indexed":true,"internalType":"address"},{"name":"toDelegate","type":"address","indexed":true,"internalType":"address"}],"anonymous":false},{"type":"event","name":"DelegateVotesChanged","inputs":[{"name":"delegate","type":"address","indexed":true,"internalType":"address"},{"name":"previousVotes","type":"uint256","indexed":false,"internalType":"uint256"},{"name":"newVotes","type":"uint256","indexed":false,"internalType":"uint256"}],"anonymous":false},{"type":"event","name":"EIP712DomainChanged","inputs":[],"anonymous":false},{"type":"event","name":"MetadataUpdate","inputs":[{"name":"_tokenId","type":"uint256","indexed":false,"internalType":"uint256"}],"anonymous":false},{"type":"event","name":"OwnershipTransferred","inputs":[{"name":"previousOwner","type":"address","indexed":true,"internalType":"address"},{"name":"newOwner","type":"address","indexed":true,"internalType":"address"}],"anonymous":false},{"type":"event","name":"PieceAdded","inputs":[{"name":"pieceId","type":"uint256","indexed":false,"internalType":"uint256"},{"name":"nft","type":"address","indexed":true,"internalType":"address"},{"name":"erc1155TokenId","type":"uint256","indexed":false,"internalType":"uint256"}],"anonymous":false},{"type":"event","name":"PieceRemoved","inputs":[{"name":"pieceId","type":"uint256","indexed":false,"internalType":"uint256"},{"name":"nft","type":"address","indexed":true,"internalType":"address"},{"name":"erc1155TokenId","type":"uint256","indexed":false,"internalType":"uint256"}],"anonymous":false},{"type":"event","name":"PlayerDeactivated","inputs":[{"name":"account","type":"address","indexed":true,"internalType":"address"},{"name":"tokenId","type":"uint256","indexed":true,"internalType":"uint256"}],"anonymous":false},{"type":"event","name":"PlayerReactivated","inputs":[{"name":"account","type":"address","indexed":true,"internalType":"address"},{"name":"tokenId","type":"uint256","indexed":true,"internalType":"uint256"}],"anonymous":false},{"type":"event","name":"PlayerRegistered","inputs":[{"name":"account","type":"address","indexed":true,"internalType":"address"},{"name":"tokenId","type":"uint256","indexed":true,"internalType":"uint256"}],"anonymous":false},{"type":"event","name":"PlayerRegistrationExtended","inputs":[{"name":"account","type":"address","indexed":true,"internalType":"address"},{"name":"tokenId","type":"uint256","indexed":true,"internalType":"uint256"},{"name":"expirationTime","type":"uint256","indexed":false,"internalType":"uint256"}],"anonymous":false},{"type":"event","name":"Transfer","inputs":[{"name":"from","type":"address","indexed":true,"internalType":"address"},{"name":"to","type":"address","indexed":true,"internalType":"address"},{"name":"tokenId","type":"uint256","indexed":true,"internalType":"uint256"}],"anonymous":false},{"type":"error","name":"CannotTransferPieceCollector","inputs":[{"name":"to","type":"address","internalType":"address"},{"name":"tokenId","type":"uint256","internalType":"uint256"}]},{"type":"error","name":"CheckpointUnorderedInsertion","inputs":[]},{"type":"error","name":"ECDSAInvalidSignature","inputs":[]},{"type":"error","name":"ECDSAInvalidSignatureLength","inputs":[{"name":"length","type":"uint256","internalType":"uint256"}]},{"type":"error","name":"ECDSAInvalidSignatureS","inputs":[{"name":"s","type":"bytes32","internalType":"bytes32"}]},{"type":"error","name":"ERC5805FutureLookup","inputs":[{"name":"timepoint","type":"uint256","internalType":"uint256"},{"name":"clock","type":"uint48","internalType":"uint48"}]},{"type":"error","name":"ERC6372InconsistentClock","inputs":[]},{"type":"error","name":"ERC721EnumerableForbiddenBatchMint","inputs":[]},{"type":"error","name":"ERC721IncorrectOwner","inputs":[{"name":"sender","type":"address","internalType":"address"},{"name":"tokenId","type":"uint256","internalType":"uint256"},{"name":"owner","type":"address","internalType":"address"}]},{"type":"error","name":"ERC721InsufficientApproval","inputs":[{"name":"operator","type":"address","internalType":"address"},{"name":"tokenId","type":"uint256","internalType":"uint256"}]},{"type":"error","name":"ERC721InvalidApprover","inputs":[{"name":"approver","type":"address","internalType":"address"}]},{"type":"error","name":"ERC721InvalidOperator","inputs":[{"name":"operator","type":"address","internalType":"address"}]},{"type":"error","name":"ERC721InvalidOwner","inputs":[{"name":"owner","type":"address","internalType":"address"}]},{"type":"error","name":"ERC721InvalidReceiver","inputs":[{"name":"receiver","type":"address","internalType":"address"}]},{"type":"error","name":"ERC721InvalidSender","inputs":[{"name":"sender","type":"address","internalType":"address"}]},{"type":"error","name":"ERC721NonexistentToken","inputs":[{"name":"tokenId","type":"uint256","internalType":"uint256"}]},{"type":"error","name":"ERC721OutOfBoundsIndex","inputs":[{"name":"owner","type":"address","internalType":"address"},{"name":"index","type":"uint256","internalType":"uint256"}]},{"type":"error","name":"InvalidAccountNonce","inputs":[{"name":"account","type":"address","internalType":"address"},{"name":"currentNonce","type":"uint256","internalType":"uint256"}]},{"type":"error","name":"InvalidShortString","inputs":[]},{"type":"error","name":"OwnableInvalidOwner","inputs":[{"name":"owner","type":"address","internalType":"address"}]},{"type":"error","name":"OwnableUnauthorizedAccount","inputs":[{"name":"account","type":"address","internalType":"address"}]},{"type":"error","name":"RemovePieceNotFound","inputs":[{"name":"pieceId","type":"uint256","internalType":"uint256"}]},{"type":"error","name":"SafeCastOverflowedUintDowncast","inputs":[{"name":"bits","type":"uint8","internalType":"uint8"},{"name":"value","type":"uint256","internalType":"uint256"}]},{"type":"error","name":"StringTooLong","inputs":[{"name":"str","type":"string","internalType":"string"}]},{"type":"error","name":"VotesExpiredSignature","inputs":[{"name":"expiry","type":"uint256","internalType":"uint256"}]}],"bytecode":{"object":"0x61016060405260016019556001601a553480156200001c57600080fd5b5060405162003fd638038062003fd68339810160408190526200003f91620005d3565b6040805180820190915260018152603160f81b602082015282908890818960006200006b838262000743565b5060016200007a828262000743565b506200008c9150839050600a620002af565b610120526200009d81600b620002af565b61014052815160208084019190912060e052815190820120610100524660a0526200012b60e05161010051604080517f8b73c3c69bb8fe3d512ecc4cf759cc79239f7b179b0ffacaa9a75d522b39400f60208201529081019290925260608201524660808201523060a082015260009060c00160405160208183030381529060405280519060200120905090565b60805250503060c0526001600160a01b0381166200016457604051631e4fbdf760e01b8152600060048201526024015b60405180910390fd5b6200016f81620002e8565b5060116200017e888262000743565b5060126200018d878262000743565b50601385905560148490556015620001a6848262000743565b5060005b8151811015620002a157601a54601880546001810182556000919091527fb13d2d76d1f4b7be834882e410b3e3a8afaf69f83600ae24db354391d2378d2e015581518290829081106200020157620002016200080f565b602090810291909101810151601a54600090815260178352604090819020825181546001600160a01b0319166001600160a01b0390911617815592820151600184015581015160028301556060810151909190600382019062000265908262000743565b50608091909101516004909101805460ff1916911515919091179055601a8054906000620002938362000825565b9091555050600101620001aa565b5050505050505050620008a7565b6000602083511015620002cf57620002c7836200033a565b9050620002e2565b81620002dc848262000743565b5060ff90505b92915050565b601080546001600160a01b038381166001600160a01b0319831681179093556040519116919082907f8be0079c531659141344cd1fd0a4f28419497f9722a3daafe3b4186f6b6457e090600090a35050565b600080829050601f8151111562000368578260405163305a27a960e01b81526004016200015b91906200084d565b8051620003758262000882565b179392505050565b634e487b7160e01b600052604160045260246000fd5b60405160a081016001600160401b0381118282101715620003b857620003b86200037d565b60405290565b604051601f8201601f191681016001600160401b0381118282101715620003e957620003e96200037d565b604052919050565b60005b838110156200040e578181015183820152602001620003f4565b50506000910152565b600082601f8301126200042957600080fd5b81516001600160401b038111156200044557620004456200037d565b6200045a601f8201601f1916602001620003be565b8181528460208386010111156200047057600080fd5b62000483826020830160208701620003f1565b949350505050565b80516001600160a01b0381168114620004a357600080fd5b919050565b600082601f830112620004ba57600080fd5b815160206001600160401b0380831115620004d957620004d96200037d565b8260051b620004ea838201620003be565b93845285810183019383810190888611156200050557600080fd5b84880192505b85831015620005c757825184811115620005255760008081fd5b880160a0818b03601f19018113156200053e5760008081fd5b6200054862000393565b620005558884016200048b565b81526040808401518983015260608085015182840152608091508185015189811115620005825760008081fd5b620005928f8c8389010162000417565b8285015250508284015193508315158414620005b057600092508283fd5b81019290925250825291840191908401906200050b565b98975050505050505050565b600080600080600080600060e0888a031215620005ef57600080fd5b87516001600160401b03808211156200060757600080fd5b620006158b838c0162000417565b985060208a01519150808211156200062c57600080fd5b6200063a8b838c0162000417565b975060408a0151965060608a0151955060808a01519150808211156200065f57600080fd5b6200066d8b838c0162000417565b94506200067d60a08b016200048b565b935060c08a01519150808211156200069457600080fd5b50620006a38a828b01620004a8565b91505092959891949750929550565b600181811c90821680620006c757607f821691505b602082108103620006e857634e487b7160e01b600052602260045260246000fd5b50919050565b601f8211156200073e576000816000526020600020601f850160051c81016020861015620007195750805b601f850160051c820191505b818110156200073a5782815560010162000725565b5050505b505050565b81516001600160401b038111156200075f576200075f6200037d565b6200077781620007708454620006b2565b84620006ee565b602080601f831160018114620007af5760008415620007965750858301515b600019600386901b1c1916600185901b1785556200073a565b600085815260208120601f198616915b82811015620007e057888601518255948401946001909101908401620007bf565b5085821015620007ff5787850151600019600388901b60f8161c191681555b5050505050600190811b01905550565b634e487b7160e01b600052603260045260246000fd5b6000600182016200084657634e487b7160e01b600052601160045260246000fd5b5060010190565b60208152600082518060208401526200086e816040850160208701620003f1565b601f01601f19169190910160400192915050565b80516020808301519190811015620006e85760001960209190910360031b1b16919050565b60805160a05160c05160e0516101005161012051610140516136d4620009026000396000611a13015260006119e6015260006121d6015260006121ae01526000612109015260006121330152600061215d01526136d46000f3fe608060405234801561001057600080fd5b50600436106102895760003560e01c80637ecebe001161015c578063b84c8246116100ce578063cfecc6de11610087578063cfecc6de14610639578063d1423cc51461064c578063e0df5b6f1461065f578063e985e9c514610672578063ea45396e14610685578063f2fde38b1461069857600080fd5b8063b84c8246146105c7578063b88d4fde146105da578063c3cda520146105ed578063c47f002714610600578063c87b56dd14610613578063c9a23b911461062657600080fd5b80638f64be30116101205780638f64be301461054357806391ddadf41461056757806395d89b41146105865780639ab24eb01461058e578063a22cb465146105a1578063a425fa45146105b457600080fd5b80637ecebe00146104d257806384b0196e146104fb5780638b649b94146105165780638da5cb5b1461051f5780638e539e8c1461053057600080fd5b806344a0d68a1161020057806367de1043116101b957806367de104314610409578063681312f51461041c57806370a082311461042f578063715018a61461044257806373b9afe41461044a5780637c01800d1461045d57600080fd5b806344a0d68a146103895780634bf5d7e91461039c5780634f6ccce7146103a4578063587cde1e146103b75780635c19a95c146103e35780636352211e146103f657600080fd5b806313faede61161025257806313faede61461032c57806318160ddd1461033557806323b872dd1461033d5780632f745c59146103505780633a46b1a81461036357806342842e0e1461037657600080fd5b8062b8d9611461028e57806301ffc9a7146102b457806306fdde03146102d7578063081812fc146102ec578063095ea7b314610317575b600080fd5b6102a161029c366004612d51565b6106ab565b6040519081526020015b60405180910390f35b6102c76102c2366004612d84565b610827565b60405190151581526020016102ab565b6102df610838565b6040516102ab9190612de7565b6102ff6102fa366004612dfa565b6108ca565b6040516001600160a01b0390911681526020016102ab565b61032a610325366004612e13565b6108f3565b005b6102a160135481565b6008546102a1565b61032a61034b366004612e3f565b610902565b6102a161035e366004612e13565b610992565b6102a1610371366004612e13565b6109f7565b61032a610384366004612e3f565b610a78565b61032a610397366004612dfa565b610a98565b6102df610aa5565b6102a16103b2366004612dfa565b610b1d565b6102ff6103c5366004612d51565b6001600160a01b039081166000908152600d60205260409020541690565b61032a6103f1366004612d51565b610b76565b6102ff610404366004612dfa565b610b81565b61032a610417366004612d51565b610b8c565b61032a61042a366004612dfa565b610cc5565b6102a161043d366004612d51565b610cd2565b61032a610d1a565b61032a610458366004612e80565b610d2e565b6104a361046b366004612d51565b601660205260009081526040902080546001820154600283015460038401546004850154600590950154939492939192909160ff1686565b6040805196875260208701959095529385019290925260608401526080830152151560a082015260c0016102ab565b6102a16104e0366004612d51565b6001600160a01b03166000908152600c602052604090205490565b610503610d6b565b6040516102ab9796959493929190612ef5565b6102a160145481565b6010546001600160a01b03166102ff565b6102a161053e366004612dfa565b610db1565b610556610551366004612dfa565b610e1b565b6040516102ab959493929190612f8e565b61056f610ee1565b60405165ffffffffffff90911681526020016102ab565b6102df610ef0565b6102a161059c366004612d51565b610eff565b61032a6105af366004612fdd565b610f2f565b61032a6105c2366004613016565b610f3a565b61032a6105d53660046130dd565b611008565b61032a6105e8366004613126565b61101c565b61032a6105fb3660046131a6565b611033565b61032a61060e3660046130dd565b6110f0565b6102df610621366004612dfa565b611104565b61032a610634366004612dfa565b6111a2565b6102a1610647366004612dfa565b611314565b6102a161065a366004612d51565b611335565b61032a61066d3660046130dd565b6113d9565b6102c7610680366004613208565b61142c565b6102a1610693366004612d51565b61145a565b61032a6106a6366004612d51565b6114d9565b600080805b60185481101561082057600060176000601884815481106106d3576106d3613236565b9060005260206000200154815260200190815260200160002090506000816001015460001415806107085750600482015460ff165b1561078b5781546001830154604051627eeac760e11b81526001600160a01b038981166004830152602482019290925291169062fdd58e90604401602060405180830381865afa158015610760573d6000803e3d6000fd5b505050506040513d601f19601f82011682018060405250810190610784919061324c565b90506107fb565b81546040516370a0823160e01b81526001600160a01b038881166004830152909116906370a0823190602401602060405180830381865afa1580156107d4573d6000803e3d6000fd5b505050506040513d601f19601f820116820180604052508101906107f8919061324c565b90505b600282015461080a908261327b565b6108149085613292565b935050506001016106b0565b5092915050565b600061083282611514565b92915050565b606060118054610847906132a5565b80601f0160208091040260200160405190810160405280929190818152602001828054610873906132a5565b80156108c05780601f10610895576101008083540402835291602001916108c0565b820191906000526020600020905b8154815290600101906020018083116108a357829003601f168201915b5050505050905090565b60006108d582611539565b506000828152600460205260409020546001600160a01b0316610832565b6108fe828233611572565b5050565b6001600160a01b03821661093157604051633250574960e11b8152600060048201526024015b60405180910390fd5b600061093e83833361157f565b9050836001600160a01b0316816001600160a01b03161461098c576040516364283d7b60e01b81526001600160a01b0380861660048301526024820184905282166044820152606401610928565b50505050565b600061099d83610cd2565b82106109ce5760405163295f44f760e21b81526001600160a01b038416600482015260248101839052604401610928565b506001600160a01b03919091166000908152600660209081526040808320938352929052205490565b600080610a02610ee1565b90508065ffffffffffff168310610a3d57604051637669fc0f60e11b81526004810184905265ffffffffffff82166024820152604401610928565b610a67610a49846115f6565b6001600160a01b0386166000908152600e602052604090209061162d565b6001600160d01b0316949350505050565b610a938383836040518060200160405280600081525061101c565b505050565b610aa06116e3565b601355565b6060610aaf611710565b65ffffffffffff16610abf610ee1565b65ffffffffffff1614610ae5576040516301bfc1c560e61b815260040160405180910390fd5b5060408051808201909152601d81527f6d6f64653d626c6f636b6e756d6265722666726f6d3d64656661756c74000000602082015290565b6000610b2860085490565b8210610b515760405163295f44f760e21b81526000600482015260248101839052604401610928565b60088281548110610b6457610b64613236565b90600052602060002001549050919050565b336108fe818361171b565b600061083282611539565b6001600160a01b038116600090815260166020526040812090610bae836106ab565b8254909150600003610bd257601354811015610bc957505050565b610a938361172e565b600582015460ff1615610c0857610be983826117dc565b506000610bf58461145a565b90508082101561098c5761098c846118b9565b610c1283826117dc565b610c1b57505050565b60058201805460ff1916600117905560048201544211610c4857610c43838360020154611928565b610c87565b4260018301819055601454610c5c91613292565b600483015560198054906000610c71836132df565b9091555060028301819055610c87908490611928565b60028201546040516001600160a01b038516907f9144be202eaef15ec62321bd474eac465535c193a84b08a4b0276acd82bea75590600090a3505050565b610ccd6116e3565b601455565b60006001600160a01b038216610cfe576040516322718ad960e21b815260006004820152602401610928565b506001600160a01b031660009081526003602052604090205490565b610d226116e3565b610d2c600061198d565b565b60005b81811015610a9357610d63838383818110610d4e57610d4e613236565b90506020020160208101906104179190612d51565b600101610d31565b600060608060008060006060610d7f6119df565b610d87611a0c565b60408051600080825260208201909252600f60f81b9b939a50919850469750309650945092509050565b600080610dbc610ee1565b90508065ffffffffffff168310610df757604051637669fc0f60e11b81526004810184905265ffffffffffff82166024820152604401610928565b610e0b610e03846115f6565b600f9061162d565b6001600160d01b03169392505050565b60176020526000908152604090208054600182015460028301546003840180546001600160a01b03909416949293919291610e55906132a5565b80601f0160208091040260200160405190810160405280929190818152602001828054610e81906132a5565b8015610ece5780601f10610ea357610100808354040283529160200191610ece565b820191906000526020600020905b815481529060010190602001808311610eb157829003601f168201915b5050506004909301549192505060ff1685565b6000610eeb611710565b905090565b606060128054610847906132a5565b6001600160a01b0381166000908152600e60205260408120610f2090611a39565b6001600160d01b031692915050565b6108fe338383611a72565b610f426116e3565b601a5460188054600181019091557fb13d2d76d1f4b7be834882e410b3e3a8afaf69f83600ae24db354391d2378d2e0181905560009081526017602052604090208190610f8f8282613415565b50610f9f90506020820182612d51565b6001600160a01b03167f49b1be33ece5f176313f2aa406d0ed97e8bf0fc873db032b7836a374c8fd725c601a548360200135604051610fe8929190918252602082015260400190565b60405180910390a2601a8054906000611000836132df565b919050555050565b6110106116e3565b60126108fe82826134cd565b611027848484610902565b61098c84848484611b11565b8342111561105757604051632341d78760e11b815260048101859052602401610928565b604080517fe48329057bfd03d55e49b547132e39cffd9c1820ad7b9d4c5307691425d15adf60208201526001600160a01b0388169181019190915260608101869052608081018590526000906110d1906110c99060a00160405160208183030381529060405280519060200120611c3a565b858585611c67565b90506110dd8187611c95565b6110e7818861171b565b50505050505050565b6110f86116e3565b60116108fe82826134cd565b606061110f82611539565b506015805461111d906132a5565b80601f0160208091040260200160405190810160405280929190818152602001828054611149906132a5565b80156111965780601f1061116b57610100808354040283529160200191611196565b820191906000526020600020905b81548152906001019060200180831161117957829003601f168201915b50505050509050919050565b6111aa6116e3565b60005b6018548110156112f45781601882815481106111cb576111cb613236565b9060005260206000200154036112ec57601880546111eb9060019061358d565b815481106111fb576111fb613236565b90600052602060002001546018828154811061121957611219613236565b6000918252602090912001556018805480611236576112366135a0565b6000828152602080822060001990840181018390559092019092558382526017815260409182902080546001909101548351868152928301526001600160a01b0316917f792300ecb85c00d61d923b09f394cec752e61f9f9eb34857b94e52cf00905609910160405180910390a2600082815260176020526040812080546001600160a01b03191681556001810182905560028101829055906112dc6003830182612cf2565b50600401805460ff191690555050565b6001016111ad565b506040516301cc2c6560e41b815260048101829052602401610928565b50565b6018818154811061132457600080fd5b600091825260209091200154905081565b6001600160a01b03811660009081526016602052604081206005015460ff1661136057506000919050565b6001600160a01b038216600090815260166020526040812060030154611385846106ab565b61138f919061358d565b9050601454601354826113a291906135cc565b6113ac919061327b565b6001600160a01b0384166000908152601660205260409020600401546113d29190613292565b9392505050565b6113e16116e3565b60156113ed82826134cd565b50604080516001815260001960208201527f6bd5c950a8d8df17f772f5af37cb3655737899cbf903264b9795592da439661c910160405180910390a150565b6001600160a01b03918216600090815260056020908152604080832093909416825291909152205460ff1690565b6001600160a01b03811660009081526016602052604081206004810154421015611488576003015492915050565b600060145482600401544261149d919061358d565b6114a791906135cc565b6114b2906001613292565b9050601354816114c2919061327b565b82600301546114d19190613292565b949350505050565b6114e16116e3565b6001600160a01b03811661150b57604051631e4fbdf760e01b815260006004820152602401610928565b6113118161198d565b60006001600160e01b0319821663780e9d6360e01b1480610832575061083282611ce8565b6000818152600260205260408120546001600160a01b03168061083257604051637e27328960e01b815260048101849052602401610928565b610a938383836001611d38565b6000828152600260205260408120546001600160a01b03908116908516158015906115b257506001600160a01b03811615155b156115e2576040516353278c1960e11b81526001600160a01b038616600482015260248101859052604401610928565b6115ed858585611e3e565b95945050505050565b600065ffffffffffff821115611629576040516306dfcc6560e41b81526030600482015260248101839052604401610928565b5090565b81546000908181600581111561168c57600061164884611e5a565b611652908561358d565b60008881526020902090915081015465ffffffffffff908116908716101561167c5780915061168a565b611687816001613292565b92505b505b600061169a87878585611f42565b905080156116d5576116bf876116b160018461358d565b600091825260209091200190565b54600160301b90046001600160d01b03166116d8565b60005b979650505050505050565b6010546001600160a01b03163314610d2c5760405163118cdaa760e01b8152336004820152602401610928565b6000610eeb436115f6565b61172482610b8c565b6108fe8282611fa4565b6001600160a01b03811660009081526016602052604090204280825560018201819055601354600383015560145461176591613292565b600482015560058101805460ff1916600117905560198054906000611789836132df565b909155506002820181905561179f908390611928565b60028101546040516001600160a01b038416907f324cb0062138d65997c86cd3012489ceb351d602f2f55c7408306e8040c79f3f90600090a35050565b6001600160a01b0382166000908152601660205260408120815b6000826003015485611808919061358d565b90506013548110158015611820575042836004015411155b156118ad5760135483600301600082825461183b9190613292565b9091555050601454600484018054600090611857908490613292565b909155505060028301546004840154604051908152600193506001600160a01b038816907f2f5c886ec49c9de38eeaee361dda38adfb07d9bcb666fa13f3570f57ea6fdb789060200160405180910390a36118b3565b506114d1565b506117f6565b6001600160a01b038116600090815260166020526040902060058101805460ff1916905560028101546118eb90612016565b60028101546040516001600160a01b038416907f047bba5d33ddabd1742cb519d1cd903db384f6484fa17192510bb3e798cd3bfd90600090a35050565b6001600160a01b03821661195257604051633250574960e11b815260006004820152602401610928565b60006119608383600061157f565b90506001600160a01b03811615610a93576040516339e3563760e11b815260006004820152602401610928565b601080546001600160a01b038381166001600160a01b0319831681179093556040519116919082907f8be0079c531659141344cd1fd0a4f28419497f9722a3daafe3b4186f6b6457e090600090a35050565b6060610eeb7f0000000000000000000000000000000000000000000000000000000000000000600a612051565b6060610eeb7f0000000000000000000000000000000000000000000000000000000000000000600b612051565b80546000908015611a6957611a53836116b160018461358d565b54600160301b90046001600160d01b03166113d2565b60009392505050565b6001600160a01b038216611aa457604051630b61174360e31b81526001600160a01b0383166004820152602401610928565b6001600160a01b03838116600081815260056020908152604080832094871680845294825291829020805460ff191686151590811790915591519182527f17307eab39ab6107e8899845ad3d59bd9653f200f220920489ca2b5937696c31910160405180910390a3505050565b6001600160a01b0383163b1561098c57604051630a85bd0160e11b81526001600160a01b0384169063150b7a0290611b539033908890879087906004016135ee565b6020604051808303816000875af1925050508015611b8e575060408051601f3d908101601f19168201909252611b8b9181019061362b565b60015b611bf7573d808015611bbc576040519150601f19603f3d011682016040523d82523d6000602084013e611bc1565b606091505b508051600003611bef57604051633250574960e11b81526001600160a01b0385166004820152602401610928565b805181602001fd5b6001600160e01b03198116630a85bd0160e11b14611c3357604051633250574960e11b81526001600160a01b0385166004820152602401610928565b5050505050565b6000610832611c476120fc565b8360405161190160f01b8152600281019290925260228201526042902090565b600080600080611c7988888888612227565b925092509250611c8982826122f6565b50909695505050505050565b6001600160a01b0382166000908152600c60205260409020805460018101909155818114610a93576040516301d4b62360e61b81526001600160a01b038416600482015260248101829052604401610928565b60006001600160e01b031982166380ac58cd60e01b1480611d1957506001600160e01b03198216635b5e139f60e01b145b8061083257506301ffc9a760e01b6001600160e01b0319831614610832565b8080611d4c57506001600160a01b03821615155b15611e0e576000611d5c84611539565b90506001600160a01b03831615801590611d885750826001600160a01b0316816001600160a01b031614155b8015611d9b5750611d99818461142c565b155b15611dc45760405163a9fbf51f60e01b81526001600160a01b0384166004820152602401610928565b8115611e0c5783856001600160a01b0316826001600160a01b03167f8c5be1e5ebec7d5bd14f71427d1e84f3dd0314c0f7b2291e5b200ac8c7c3b92560405160405180910390a45b505b5050600090815260046020526040902080546001600160a01b0319166001600160a01b0392909216919091179055565b600080611e4c8585856123af565b90506114d18186600161247c565b600081600003611e6c57506000919050565b60006001611e79846124f7565b901c6001901b90506001818481611e9257611e926135b6565b048201901c90506001818481611eaa57611eaa6135b6565b048201901c90506001818481611ec257611ec26135b6565b048201901c90506001818481611eda57611eda6135b6565b048201901c90506001818481611ef257611ef26135b6565b048201901c90506001818481611f0a57611f0a6135b6565b048201901c90506001818481611f2257611f226135b6565b048201901c90506113d281828581611f3c57611f3c6135b6565b0461258b565b60005b81831015611f9c576000611f5984846125a1565b60008781526020902090915065ffffffffffff86169082015465ffffffffffff161115611f8857809250611f96565b611f93816001613292565b93505b50611f45565b509392505050565b6001600160a01b038281166000818152600d602052604080822080548686166001600160a01b0319821681179092559151919094169392849290917f3134e8a2e6d97e929a7e54011ea5485d7d196dd5f0ba4d4ef95803e8e3fc257f9190a4610a938183612011866125bc565b6125c7565b6000612025600083600061157f565b90506001600160a01b0381166108fe57604051637e27328960e01b815260048101839052602401610928565b606060ff831461206b576120648361272e565b9050610832565b818054612077906132a5565b80601f01602080910402602001604051908101604052809291908181526020018280546120a3906132a5565b80156120f05780601f106120c5576101008083540402835291602001916120f0565b820191906000526020600020905b8154815290600101906020018083116120d357829003601f168201915b50505050509050610832565b6000306001600160a01b037f00000000000000000000000000000000000000000000000000000000000000001614801561215557507f000000000000000000000000000000000000000000000000000000000000000046145b1561217f57507f000000000000000000000000000000000000000000000000000000000000000090565b610eeb604080517f8b73c3c69bb8fe3d512ecc4cf759cc79239f7b179b0ffacaa9a75d522b39400f60208201527f0000000000000000000000000000000000000000000000000000000000000000918101919091527f000000000000000000000000000000000000000000000000000000000000000060608201524660808201523060a082015260009060c00160405160208183030381529060405280519060200120905090565b600080807f7fffffffffffffffffffffffffffffff5d576e7357a4501ddfe92f46681b20a084111561226257506000915060039050826122ec565b604080516000808252602082018084528a905260ff891692820192909252606081018790526080810186905260019060a0016020604051602081039080840390855afa1580156122b6573d6000803e3d6000fd5b5050604051601f1901519150506001600160a01b0381166122e2575060009250600191508290506122ec565b9250600091508190505b9450945094915050565b600082600381111561230a5761230a613648565b03612313575050565b600182600381111561232757612327613648565b036123455760405163f645eedf60e01b815260040160405180910390fd5b600282600381111561235957612359613648565b0361237a5760405163fce698f760e01b815260048101829052602401610928565b600382600381111561238e5761238e613648565b036108fe576040516335e2f38360e21b815260048101829052602401610928565b6000806123bd85858561276d565b90506001600160a01b03811661241a5761241584600880546000838152600960205260408120829055600182018355919091527ff3f7a9fe364faab93b216da50a3214154f22a0a2b415b23a84c8169e8b636ee30155565b61243d565b846001600160a01b0316816001600160a01b03161461243d5761243d8185612866565b6001600160a01b03851661245957612454846128f7565b6114d1565b846001600160a01b0316816001600160a01b0316146114d1576114d185856129a6565b6001600160a01b0383166124a3576124a0600f6129f661249b84612a02565b612a36565b50505b6001600160a01b0382166124c5576124c2600f612a6f61249b84612a02565b50505b6001600160a01b038381166000908152600d6020526040808220548584168352912054610a93929182169116836125c7565b600080608083901c1561250c57608092831c92015b604083901c1561251e57604092831c92015b602083901c1561253057602092831c92015b601083901c1561254257601092831c92015b600883901c1561255457600892831c92015b600483901c1561256657600492831c92015b600283901c1561257857600292831c92015b600183901c156108325760010192915050565b600081831061259a57816113d2565b5090919050565b60006125b060028484186135cc565b6113d290848416613292565b600061083282610cd2565b816001600160a01b0316836001600160a01b0316141580156125e95750600081115b15610a93576001600160a01b0383161561268c576001600160a01b0383166000908152600e60205260408120819061262790612a6f61249b86612a02565b6001600160d01b031691506001600160d01b03169150846001600160a01b03167fdec2bacdd2f05b59de34da9b523dff8be42e5e38e818c82fdb0bae774387a7248383604051612681929190918252602082015260400190565b60405180910390a250505b6001600160a01b03821615610a93576001600160a01b0382166000908152600e6020526040812081906126c5906129f661249b86612a02565b6001600160d01b031691506001600160d01b03169150836001600160a01b03167fdec2bacdd2f05b59de34da9b523dff8be42e5e38e818c82fdb0bae774387a724838360405161271f929190918252602082015260400190565b60405180910390a25050505050565b6060600061273b83612a7b565b604080516020808252818301909252919250600091906020820181803683375050509182525060208101929092525090565b6000828152600260205260408120546001600160a01b039081169083161561279a5761279a818486612aa3565b6001600160a01b038116156127d8576127b7600085600080611d38565b6001600160a01b038116600090815260036020526040902080546000190190555b6001600160a01b03851615612807576001600160a01b0385166000908152600360205260409020805460010190555b60008481526002602052604080822080546001600160a01b0319166001600160a01b0389811691821790925591518793918516917fddf252ad1be2c89b69c2b068fc378daa952ba7f163c4a11628f55a4df523b3ef91a4949350505050565b600061287183610cd2565b6000838152600760205260409020549091508082146128c4576001600160a01b03841660009081526006602090815260408083208584528252808320548484528184208190558352600790915290208190555b5060009182526007602090815260408084208490556001600160a01b039094168352600681528383209183525290812055565b6008546000906129099060019061358d565b6000838152600960205260408120546008805493945090928490811061293157612931613236565b90600052602060002001549050806008838154811061295257612952613236565b600091825260208083209091019290925582815260099091526040808220849055858252812055600880548061298a5761298a6135a0565b6001900381819060005260206000200160009055905550505050565b600060016129b384610cd2565b6129bd919061358d565b6001600160a01b039093166000908152600660209081526040808320868452825280832085905593825260079052919091209190915550565b60006113d2828461365e565b60006001600160d01b03821115611629576040516306dfcc6560e41b815260d0600482015260248101839052604401610928565b600080612a62612a44610ee1565b612a5a612a5088611a39565b868863ffffffff16565b879190612b07565b915091505b935093915050565b60006113d2828461367e565b600060ff8216601f81111561083257604051632cd44ac360e21b815260040160405180910390fd5b612aae838383612b15565b610a93576001600160a01b038316612adc57604051637e27328960e01b815260048101829052602401610928565b60405163177e802f60e01b81526001600160a01b038316600482015260248101829052604401610928565b600080612a62858585612b78565b60006001600160a01b038316158015906114d15750826001600160a01b0316846001600160a01b03161480612b4f5750612b4f848461142c565b806114d15750506000908152600460205260409020546001600160a01b03908116911614919050565b825460009081908015612c97576000612b96876116b160018561358d565b60408051808201909152905465ffffffffffff808216808452600160301b9092046001600160d01b031660208401529192509087161015612bea57604051632520601d60e01b815260040160405180910390fd5b805165ffffffffffff808816911603612c365784612c0d886116b160018661358d565b80546001600160d01b0392909216600160301b0265ffffffffffff909216919091179055612c87565b6040805180820190915265ffffffffffff80881682526001600160d01b0380881660208085019182528b54600181018d5560008d81529190912094519151909216600160301b029216919091179101555b602001519250839150612a679050565b50506040805180820190915265ffffffffffff80851682526001600160d01b0380851660208085019182528854600181018a5560008a815291822095519251909316600160301b029190931617920191909155905081612a67565b508054612cfe906132a5565b6000825580601f10612d0e575050565b601f01602090049060005260206000209081019061131191905b808211156116295760008155600101612d28565b6001600160a01b038116811461131157600080fd5b600060208284031215612d6357600080fd5b81356113d281612d3c565b6001600160e01b03198116811461131157600080fd5b600060208284031215612d9657600080fd5b81356113d281612d6e565b6000815180845260005b81811015612dc757602081850181015186830182015201612dab565b506000602082860101526020601f19601f83011685010191505092915050565b6020815260006113d26020830184612da1565b600060208284031215612e0c57600080fd5b5035919050565b60008060408385031215612e2657600080fd5b8235612e3181612d3c565b946020939093013593505050565b600080600060608486031215612e5457600080fd5b8335612e5f81612d3c565b92506020840135612e6f81612d3c565b929592945050506040919091013590565b60008060208385031215612e9357600080fd5b823567ffffffffffffffff80821115612eab57600080fd5b818501915085601f830112612ebf57600080fd5b813581811115612ece57600080fd5b8660208260051b8501011115612ee357600080fd5b60209290920196919550909350505050565b60ff60f81b881681526000602060e06020840152612f1660e084018a612da1565b8381036040850152612f28818a612da1565b606085018990526001600160a01b038816608086015260a0850187905284810360c08601528551808252602080880193509091019060005b81811015612f7c57835183529284019291840191600101612f60565b50909c9b505050505050505050505050565b60018060a01b038616815284602082015283604082015260a060608201526000612fbb60a0830185612da1565b905082151560808301529695505050505050565b801515811461131157600080fd5b60008060408385031215612ff057600080fd5b8235612ffb81612d3c565b9150602083013561300b81612fcf565b809150509250929050565b60006020828403121561302857600080fd5b813567ffffffffffffffff81111561303f57600080fd5b820160a081850312156113d257600080fd5b634e487b7160e01b600052604160045260246000fd5b600067ffffffffffffffff8084111561308257613082613051565b604051601f8501601f19908116603f011681019082821181831017156130aa576130aa613051565b816040528093508581528686860111156130c357600080fd5b858560208301376000602087830101525050509392505050565b6000602082840312156130ef57600080fd5b813567ffffffffffffffff81111561310657600080fd5b8201601f8101841361311757600080fd5b6114d184823560208401613067565b6000806000806080858703121561313c57600080fd5b843561314781612d3c565b9350602085013561315781612d3c565b925060408501359150606085013567ffffffffffffffff81111561317a57600080fd5b8501601f8101871361318b57600080fd5b61319a87823560208401613067565b91505092959194509250565b60008060008060008060c087890312156131bf57600080fd5b86356131ca81612d3c565b95506020870135945060408701359350606087013560ff811681146131ee57600080fd5b9598949750929560808101359460a0909101359350915050565b6000806040838503121561321b57600080fd5b823561322681612d3c565b9150602083013561300b81612d3c565b634e487b7160e01b600052603260045260246000fd5b60006020828403121561325e57600080fd5b5051919050565b634e487b7160e01b600052601160045260246000fd5b808202811582820484141761083257610832613265565b8082018082111561083257610832613265565b600181811c908216806132b957607f821691505b6020821081036132d957634e487b7160e01b600052602260045260246000fd5b50919050565b6000600182016132f1576132f1613265565b5060010190565b601f821115610a93576000816000526020600020601f850160051c810160208610156133215750805b601f850160051c820191505b818110156133405782815560010161332d565b505050505050565b67ffffffffffffffff83111561336057613360613051565b6133748361336e83546132a5565b836132f8565b6000601f8411600181146133a857600085156133905750838201355b600019600387901b1c1916600186901b178355611c33565b600083815260209020601f19861690835b828110156133d957868501358255602094850194600190920191016133b9565b50868210156133f65760001960f88860031b161c19848701351681555b505060018560011b0183555050505050565b6000813561083281612fcf565b813561342081612d3c565b81546001600160a01b0319166001600160a01b03919091161781556020820135600182015560408201356002820155606082013536839003601e1901811261346757600080fd5b8201803567ffffffffffffffff81111561348057600080fd5b60208201915080360382131561349557600080fd5b6134a3818360038601613348565b50506108fe6134b460808401613408565b6004830160ff1981541660ff8315151681178255505050565b815167ffffffffffffffff8111156134e7576134e7613051565b6134fb816134f584546132a5565b846132f8565b602080601f83116001811461353057600084156135185750858301515b600019600386901b1c1916600185901b178555613340565b600085815260208120601f198616915b8281101561355f57888601518255948401946001909101908401613540565b508582101561357d5787850151600019600388901b60f8161c191681555b5050505050600190811b01905550565b8181038181111561083257610832613265565b634e487b7160e01b600052603160045260246000fd5b634e487b7160e01b600052601260045260246000fd5b6000826135e957634e487b7160e01b600052601260045260246000fd5b500490565b6001600160a01b038581168252841660208201526040810183905260806060820181905260009061362190830184612da1565b9695505050505050565b60006020828403121561363d57600080fd5b81516113d281612d6e565b634e487b7160e01b600052602160045260246000fd5b6001600160d01b0381811683821601908082111561082057610820613265565b6001600160d01b038281168282160390808211156108205761082061326556fea2646970667358221220780ea16684251e4c4b9937a1a30c49282e5b30c5ae62c7e5f4c83f4e9cf52a1664736f6c63430008180033","linkReferences":{}},"methodIdentifiers":{"CLOCK_MODE()":"4bf5d7e9","activeUntil(address)":"d1423cc5","addPiece((address,uint256,uint256,string,bool))":"a425fa45","approve(address,uint256)":"095ea7b3","balanceOf(address)":"70a08231","clock()":"91ddadf4","cost()":"13faede6","delegate(address)":"5c19a95c","delegateBySig(address,uint256,uint256,uint8,bytes32,bytes32)":"c3cda520","delegates(address)":"587cde1e","eip712Domain()":"84b0196e","getApproved(uint256)":"081812fc","getPastTotalSupply(uint256)":"8e539e8c","getPastVotes(address,uint256)":"3a46b1a8","getTotalPieceValue(address)":"00b8d961","getVotes(address)":"9ab24eb0","isApprovedForAll(address,address)":"e985e9c5","minimumRegistrationValue(address)":"ea45396e","name()":"06fdde03","nonces(address)":"7ecebe00","owner()":"8da5cb5b","ownerOf(uint256)":"6352211e","pieceIds(uint256)":"cfecc6de","pieces(uint256)":"8f64be30","playerRecords(address)":"7c01800d","removePiece(uint256)":"c9a23b91","renounceOwnership()":"715018a6","roundLength()":"8b649b94","safeTransferFrom(address,address,uint256)":"42842e0e","safeTransferFrom(address,address,uint256,bytes)":"b88d4fde","setApprovalForAll(address,bool)":"a22cb465","setCost(uint256)":"44a0d68a","setName(string)":"c47f0027","setRoundLength(uint256)":"681312f5","setSymbol(string)":"b84c8246","setTokenURI(string)":"e0df5b6f","supportsInterface(bytes4)":"01ffc9a7","symbol()":"95d89b41","tokenByIndex(uint256)":"4f6ccce7","tokenOfOwnerByIndex(address,uint256)":"2f745c59","tokenURI(uint256)":"c87b56dd","totalSupply()":"18160ddd","transferFrom(address,address,uint256)":"23b872dd","transferOwnership(address)":"f2fde38b","updatePlayer(address)":"67de1043","updatePlayers(address[])":"73b9afe4"},"id":66}